{
  "_format": "hh-sol-artifact-1",
  "contractName": "Asset",
  "sourceName": "contracts/asset.sol",
  "abi": [
    {
      "inputs": [
        {
          "internalType": "string",
          "name": "_token",
          "type": "string"
        },
        {
          "internalType": "string",
          "name": "_symbol",
          "type": "string"
        }
      ],
      "stateMutability": "nonpayable",
      "type": "constructor"
    },
    {
      "anonymous": false,
      "inputs": [
        {
          "indexed": true,
          "internalType": "address",
          "name": "_owner",
          "type": "address"
        },
        {
          "indexed": true,
          "internalType": "address",
          "name": "_spender",
          "type": "address"
        },
        {
          "indexed": false,
          "internalType": "uint256",
          "name": "_value",
          "type": "uint256"
        }
      ],
      "name": "Approval",
      "type": "event"
    },
    {
      "anonymous": false,
      "inputs": [
        {
          "indexed": true,
          "internalType": "address",
          "name": "_from",
          "type": "address"
        },
        {
          "indexed": true,
          "internalType": "address",
          "name": "_to",
          "type": "address"
        },
        {
          "indexed": false,
          "internalType": "uint256",
          "name": "_value",
          "type": "uint256"
        }
      ],
      "name": "Transfer",
      "type": "event"
    },
    {
      "inputs": [
        {
          "internalType": "address",
          "name": "_owner",
          "type": "address"
        },
        {
          "internalType": "address",
          "name": "_spender",
          "type": "address"
        }
      ],
      "name": "allowance",
      "outputs": [
        {
          "internalType": "uint256",
          "name": "remaining",
          "type": "uint256"
        }
      ],
      "stateMutability": "view",
      "type": "function"
    },
    {
      "inputs": [
        {
          "internalType": "address",
          "name": "_spender",
          "type": "address"
        },
        {
          "internalType": "uint256",
          "name": "_value",
          "type": "uint256"
        }
      ],
      "name": "approve",
      "outputs": [
        {
          "internalType": "bool",
          "name": "success",
          "type": "bool"
        }
      ],
      "stateMutability": "nonpayable",
      "type": "function"
    },
    {
      "inputs": [
        {
          "internalType": "address",
          "name": "_owner",
          "type": "address"
        }
      ],
      "name": "balanceOf",
      "outputs": [
        {
          "internalType": "uint256",
          "name": "balance",
          "type": "uint256"
        }
      ],
      "stateMutability": "view",
      "type": "function"
    },
    {
      "inputs": [
        {
          "internalType": "address",
          "name": "_account",
          "type": "address"
        },
        {
          "internalType": "uint256",
          "name": "_currentRate",
          "type": "uint256"
        },
        {
          "internalType": "uint256",
          "name": "_quantity",
          "type": "uint256"
        },
        {
          "internalType": "uint256",
          "name": "_amountPaid",
          "type": "uint256"
        },
        {
          "internalType": "uint256",
          "name": "_timestamp",
          "type": "uint256"
        }
      ],
      "name": "buy",
      "outputs": [],
      "stateMutability": "nonpayable",
      "type": "function"
    },
    {
      "inputs": [],
      "name": "decimals",
      "outputs": [
        {
          "internalType": "uint8",
          "name": "",
          "type": "uint8"
        }
      ],
      "stateMutability": "view",
      "type": "function"
    },
    {
      "inputs": [
        {
          "internalType": "address",
          "name": "_account",
          "type": "address"
        }
      ],
      "name": "getHistory",
      "outputs": [
        {
          "components": [
            {
              "internalType": "uint256",
              "name": "currentRate",
              "type": "uint256"
            },
            {
              "internalType": "uint256",
              "name": "quantity",
              "type": "uint256"
            },
            {
              "internalType": "uint256",
              "name": "amountPaid",
              "type": "uint256"
            },
            {
              "internalType": "uint256",
              "name": "timestamp",
              "type": "uint256"
            }
          ],
          "internalType": "struct Asset.Record[]",
          "name": "",
          "type": "tuple[]"
        }
      ],
      "stateMutability": "view",
      "type": "function"
    },
    {
      "inputs": [
        {
          "internalType": "address",
          "name": "_account",
          "type": "address"
        }
      ],
      "name": "getRecord",
      "outputs": [
        {
          "components": [
            {
              "internalType": "uint256",
              "name": "currentRate",
              "type": "uint256"
            },
            {
              "internalType": "uint256",
              "name": "quantity",
              "type": "uint256"
            },
            {
              "internalType": "uint256",
              "name": "amountPaid",
              "type": "uint256"
            },
            {
              "internalType": "uint256",
              "name": "timestamp",
              "type": "uint256"
            }
          ],
          "internalType": "struct Asset.Record",
          "name": "",
          "type": "tuple"
        }
      ],
      "stateMutability": "view",
      "type": "function"
    },
    {
      "inputs": [],
      "name": "name",
      "outputs": [
        {
          "internalType": "string",
          "name": "",
          "type": "string"
        }
      ],
      "stateMutability": "view",
      "type": "function"
    },
    {
      "inputs": [],
      "name": "symbol",
      "outputs": [
        {
          "internalType": "string",
          "name": "",
          "type": "string"
        }
      ],
      "stateMutability": "view",
      "type": "function"
    },
    {
      "inputs": [],
      "name": "totalSupply",
      "outputs": [
        {
          "internalType": "uint256",
          "name": "",
          "type": "uint256"
        }
      ],
      "stateMutability": "view",
      "type": "function"
    },
    {
      "inputs": [
        {
          "internalType": "address",
          "name": "_to",
          "type": "address"
        },
        {
          "internalType": "uint256",
          "name": "_value",
          "type": "uint256"
        }
      ],
      "name": "transfer",
      "outputs": [
        {
          "internalType": "bool",
          "name": "success",
          "type": "bool"
        }
      ],
      "stateMutability": "nonpayable",
      "type": "function"
    },
    {
      "inputs": [
        {
          "internalType": "address",
          "name": "_from",
          "type": "address"
        },
        {
          "internalType": "address",
          "name": "_to",
          "type": "address"
        },
        {
          "internalType": "uint256",
          "name": "_value",
          "type": "uint256"
        }
      ],
      "name": "transferFrom",
      "outputs": [
        {
          "internalType": "bool",
          "name": "success",
          "type": "bool"
        }
      ],
      "stateMutability": "nonpayable",
      "type": "function"
    }
  ],
  "bytecode": "0x608060405234801561001057600080fd5b506040516118383803806118388339818101604052810190610032919061020e565b336000806101000a81548173ffffffffffffffffffffffffffffffffffffffff021916908373ffffffffffffffffffffffffffffffffffffffff160217905550816001908161008191906104a7565b50806002908161009191906104a7565b505050610579565b6000604051905090565b600080fd5b600080fd5b600080fd5b600080fd5b6000601f19601f8301169050919050565b7f4e487b7100000000000000000000000000000000000000000000000000000000600052604160045260246000fd5b610100826100b7565b810181811067ffffffffffffffff8211171561011f5761011e6100c8565b5b80604052505050565b6000610132610099565b905061013e82826100f7565b919050565b600067ffffffffffffffff82111561015e5761015d6100c8565b5b610167826100b7565b9050602081019050919050565b60005b83811015610192578082015181840152602081019050610177565b60008484015250505050565b60006101b16101ac84610143565b610128565b9050828152602081018484840111156101cd576101cc6100b2565b5b6101d8848285610174565b509392505050565b600082601f8301126101f5576101f46100ad565b5b815161020584826020860161019e565b91505092915050565b60008060408385031215610225576102246100a3565b5b600083015167ffffffffffffffff811115610243576102426100a8565b5b61024f858286016101e0565b925050602083015167ffffffffffffffff8111156102705761026f6100a8565b5b61027c858286016101e0565b9150509250929050565b600081519050919050565b7f4e487b7100000000000000000000000000000000000000000000000000000000600052602260045260246000fd5b600060028204905060018216806102d857607f821691505b6020821081036102eb576102ea610291565b5b50919050565b60008190508160005260206000209050919050565b60006020601f8301049050919050565b600082821b905092915050565b6000600883026103537fffffffffffffffffffffffffffffffffffffffffffffffffffffffffffffffff82610316565b61035d8683610316565b95508019841693508086168417925050509392505050565b6000819050919050565b6000819050919050565b60006103a461039f61039a84610375565b61037f565b610375565b9050919050565b6000819050919050565b6103be83610389565b6103d26103ca826103ab565b848454610323565b825550505050565b600090565b6103e76103da565b6103f28184846103b5565b505050565b5b818110156104165761040b6000826103df565b6001810190506103f8565b5050565b601f82111561045b5761042c816102f1565b61043584610306565b81016020851015610444578190505b61045861045085610306565b8301826103f7565b50505b505050565b600082821c905092915050565b600061047e60001984600802610460565b1980831691505092915050565b6000610497838361046d565b9150826002028217905092915050565b6104b082610286565b67ffffffffffffffff8111156104c9576104c86100c8565b5b6104d382546102c0565b6104de82828561041a565b600060209050601f83116001811461051157600084156104ff578287015190505b610509858261048b565b865550610571565b601f19841661051f866102f1565b60005b8281101561054757848901518255600182019150602085019450602081019050610522565b868310156105645784890151610560601f89168261046d565b8355505b6001600288020188555050505b505050505050565b6112b0806105886000396000f3fe608060405234801561001057600080fd5b50600436106100b45760003560e01c806370a082311161007157806370a08231146101a357806372b60c30146101d357806380396811146101ef57806395d89b411461021f578063a9059cbb1461023d578063dd62ed3e1461026d576100b4565b806306fdde03146100b9578063095ea7b3146100d757806318160ddd1461010757806323b872dd14610125578063313ce56714610155578063617fba0414610173575b600080fd5b6100c161029d565b6040516100ce9190610b20565b60405180910390f35b6100f160048036038101906100ec9190610bdb565b61032f565b6040516100fe9190610c36565b60405180910390f35b61010f610337565b60405161011c9190610c60565b60405180910390f35b61013f600480360381019061013a9190610c7b565b61033c565b60405161014c9190610c36565b60405180910390f35b61015d610345565b60405161016a9190610cea565b60405180910390f35b61018d60048036038101906101889190610d05565b61034a565b60405161019a9190610d96565b60405180910390f35b6101bd60048036038101906101b89190610d05565b6104c8565b6040516101ca9190610c60565b60405180910390f35b6101ed60048036038101906101e89190610db1565b6104cf565b005b61020960048036038101906102049190610d05565b610803565b6040516102169190610f30565b60405180910390f35b6102276109c6565b6040516102349190610b20565b60405180910390f35b61025760048036038101906102529190610bdb565b610a58565b6040516102649190610c36565b60405180910390f35b61028760048036038101906102829190610f52565b610a60565b6040516102949190610c60565b60405180910390f35b6060600180546102ac90610fc1565b80601f01602080910402602001604051908101604052809291908181526020018280546102d890610fc1565b80156103255780601f106102fa57610100808354040283529160200191610325565b820191906000526020600020905b81548152906001019060200180831161030857829003601f168201915b5050505050905090565b600092915050565b600090565b60009392505050565b600090565b610352610a68565b60008054906101000a900473ffffffffffffffffffffffffffffffffffffffff1673ffffffffffffffffffffffffffffffffffffffff163373ffffffffffffffffffffffffffffffffffffffff16146103e0576040517f08c379a00000000000000000000000000000000000000000000000000000000081526004016103d79061103e565b60405180910390fd5b600073ffffffffffffffffffffffffffffffffffffffff168273ffffffffffffffffffffffffffffffffffffffff160361044f576040517f08c379a0000000000000000000000000000000000000000000000000000000008152600401610446906110aa565b60405180910390fd5b600360008373ffffffffffffffffffffffffffffffffffffffff1673ffffffffffffffffffffffffffffffffffffffff1681526020019081526020016000206040518060800160405290816000820154815260200160018201548152602001600282015481526020016003820154815250509050919050565b6000919050565b60008054906101000a900473ffffffffffffffffffffffffffffffffffffffff1673ffffffffffffffffffffffffffffffffffffffff163373ffffffffffffffffffffffffffffffffffffffff161461055d576040517f08c379a00000000000000000000000000000000000000000000000000000000081526004016105549061103e565b60405180910390fd5b600073ffffffffffffffffffffffffffffffffffffffff168573ffffffffffffffffffffffffffffffffffffffff16036105cc576040517f08c379a00000000000000000000000000000000000000000000000000000000081526004016105c3906110aa565b60405180910390fd5b6000840361060f576040517f08c379a000000000000000000000000000000000000000000000000000000000815260040161060690611116565b60405180910390fd5b60008303610652576040517f08c379a000000000000000000000000000000000000000000000000000000000815260040161064990611182565b60405180910390fd5b60008203610695576040517f08c379a000000000000000000000000000000000000000000000000000000000815260040161068c906111ee565b60405180910390fd5b600081036106d8576040517f08c379a00000000000000000000000000000000000000000000000000000000081526004016106cf9061125a565b60405180910390fd5b60006040518060800160405280868152602001858152602001848152602001838152509050600460008773ffffffffffffffffffffffffffffffffffffffff1673ffffffffffffffffffffffffffffffffffffffff16815260200190815260200160002081908060018154018082558091505060019003906000526020600020906004020160009091909190915060008201518160000155602082015181600101556040820151816002015560608201518160030155505080600360008873ffffffffffffffffffffffffffffffffffffffff1673ffffffffffffffffffffffffffffffffffffffff16815260200190815260200160002060008201518160000155602082015181600101556040820151816002015560608201518160030155905050505050505050565b606060008054906101000a900473ffffffffffffffffffffffffffffffffffffffff1673ffffffffffffffffffffffffffffffffffffffff163373ffffffffffffffffffffffffffffffffffffffff1614610893576040517f08c379a000000000000000000000000000000000000000000000000000000000815260040161088a9061103e565b60405180910390fd5b600073ffffffffffffffffffffffffffffffffffffffff168273ffffffffffffffffffffffffffffffffffffffff1603610902576040517f08c379a00000000000000000000000000000000000000000000000000000000081526004016108f9906110aa565b60405180910390fd5b600460008373ffffffffffffffffffffffffffffffffffffffff1673ffffffffffffffffffffffffffffffffffffffff168152602001908152602001600020805480602002602001604051908101604052809291908181526020016000905b828210156109bb578382906000526020600020906004020160405180608001604052908160008201548152602001600182015481526020016002820154815260200160038201548152505081526020019060010190610961565b505050509050919050565b6060600280546109d590610fc1565b80601f0160208091040260200160405190810160405280929190818152602001828054610a0190610fc1565b8015610a4e5780601f10610a2357610100808354040283529160200191610a4e565b820191906000526020600020905b815481529060010190602001808311610a3157829003601f168201915b5050505050905090565b600092915050565b600092915050565b6040518060800160405280600081526020016000815260200160008152602001600081525090565b600081519050919050565b600082825260208201905092915050565b60005b83811015610aca578082015181840152602081019050610aaf565b60008484015250505050565b6000601f19601f8301169050919050565b6000610af282610a90565b610afc8185610a9b565b9350610b0c818560208601610aac565b610b1581610ad6565b840191505092915050565b60006020820190508181036000830152610b3a8184610ae7565b905092915050565b600080fd5b600073ffffffffffffffffffffffffffffffffffffffff82169050919050565b6000610b7282610b47565b9050919050565b610b8281610b67565b8114610b8d57600080fd5b50565b600081359050610b9f81610b79565b92915050565b6000819050919050565b610bb881610ba5565b8114610bc357600080fd5b50565b600081359050610bd581610baf565b92915050565b60008060408385031215610bf257610bf1610b42565b5b6000610c0085828601610b90565b9250506020610c1185828601610bc6565b9150509250929050565b60008115159050919050565b610c3081610c1b565b82525050565b6000602082019050610c4b6000830184610c27565b92915050565b610c5a81610ba5565b82525050565b6000602082019050610c756000830184610c51565b92915050565b600080600060608486031215610c9457610c93610b42565b5b6000610ca286828701610b90565b9350506020610cb386828701610b90565b9250506040610cc486828701610bc6565b9150509250925092565b600060ff82169050919050565b610ce481610cce565b82525050565b6000602082019050610cff6000830184610cdb565b92915050565b600060208284031215610d1b57610d1a610b42565b5b6000610d2984828501610b90565b91505092915050565b610d3b81610ba5565b82525050565b608082016000820151610d576000850182610d32565b506020820151610d6a6020850182610d32565b506040820151610d7d6040850182610d32565b506060820151610d906060850182610d32565b50505050565b6000608082019050610dab6000830184610d41565b92915050565b600080600080600060a08688031215610dcd57610dcc610b42565b5b6000610ddb88828901610b90565b9550506020610dec88828901610bc6565b9450506040610dfd88828901610bc6565b9350506060610e0e88828901610bc6565b9250506080610e1f88828901610bc6565b9150509295509295909350565b600081519050919050565b600082825260208201905092915050565b6000819050602082019050919050565b608082016000820151610e6e6000850182610d32565b506020820151610e816020850182610d32565b506040820151610e946040850182610d32565b506060820151610ea76060850182610d32565b50505050565b6000610eb98383610e58565b60808301905092915050565b6000602082019050919050565b6000610edd82610e2c565b610ee78185610e37565b9350610ef283610e48565b8060005b83811015610f23578151610f0a8882610ead565b9750610f1583610ec5565b925050600181019050610ef6565b5085935050505092915050565b60006020820190508181036000830152610f4a8184610ed2565b905092915050565b60008060408385031215610f6957610f68610b42565b5b6000610f7785828601610b90565b9250506020610f8885828601610b90565b9150509250929050565b7f4e487b7100000000000000000000000000000000000000000000000000000000600052602260045260246000fd5b60006002820490506001821680610fd957607f821691505b602082108103610fec57610feb610f92565b5b50919050565b7f43616c6c6572206973206e6f74206f776e657200000000000000000000000000600082015250565b6000611028601383610a9b565b915061103382610ff2565b602082019050919050565b600060208201905081810360008301526110578161101b565b9050919050565b7f6163636f756e742063616e277420626520656d70747900000000000000000000600082015250565b6000611094601683610a9b565b915061109f8261105e565b602082019050919050565b600060208201905081810360008301526110c381611087565b9050919050565b7f63757272656e74526174652063616e277420626520656d707479000000000000600082015250565b6000611100601a83610a9b565b915061110b826110ca565b602082019050919050565b6000602082019050818103600083015261112f816110f3565b9050919050565b7f7175616e746974792063616e277420626520656d707479000000000000000000600082015250565b600061116c601783610a9b565b915061117782611136565b602082019050919050565b6000602082019050818103600083015261119b8161115f565b9050919050565b7f616d6f756e7420706169642063616e277420626520656d707479000000000000600082015250565b60006111d8601a83610a9b565b91506111e3826111a2565b602082019050919050565b60006020820190508181036000830152611207816111cb565b9050919050565b7f74696d657374616d7020706169642063616e277420626520656d707479000000600082015250565b6000611244601d83610a9b565b915061124f8261120e565b602082019050919050565b6000602082019050818103600083015261127381611237565b905091905056fea2646970667358221220842c08ad1398678db32af3a3a5b7ab742776f531299a5c4e7c07e97b5b72524b64736f6c634300081c0033",
  "linkReferences": {},
  "deployedLinkReferences": {}
}